:4000000000800020110000005D0B00005D0B000080B500AF00F0D6FD80B500AF244B12221A6001F04FFD234B180001F07DFD012001F058FD302001F077FB1F4B1F4A1A6002
:400040001F4B8022D2051A601E4B1E4A126802210A431A601C4B1D4A1A601D4B00221A601C4B1C4A126808218A431A60FA23DB00180001F04BFC184B180001F0C3FC174B16
:40008000882292011A60164B164A1A60164B802212061A60154B8022D2021A60144B40221A60074B8022D2051A60C046BD4680BD30001040001BB70004010B40060000807B
:4000C0000C020B4078002E407C002E406A2D000064F02E406CF02E40DC050000000301400000014040FF008008010B4000010B400401014080B582B000AF72B62D4B0022D1
:400100001A60FB1D00221A7022E0FB1D1A7813005B009B185B00284A9B183B603B681A78597809020A43997809040A43DB781B06134318003B681A795B791B0213439BB224
:40014000190000F0E7FCFB1D1A78FB1D01321A70FB1D1B78012BD8D9184BEE2212061A60174B992212041A60164B992212041A60154B992212041A60144A144B1B78DBB2A6
:4001800006210B43DBB21370114BD82212041A60104B20221A60104BC42292021A600F4B20221A60FFF738FF00F0C4FCC046BD4602B080BD6CF02E40005001000000024026
:4001C0000001024000500F4010500F4000700F400800044000010440080104401801044010B5064C2378002B07D1054B002B02D0044800E000BF0123237010BD581000207B
:400200000000000080490100084B10B5002B03D00749084800E000BF07480368002B00D110BD064B002BFBD09847F9E7000000005C10002080490100A80B002000000000ED
:4002400090B597B000AF786039607B684E2B00D91CE37B689A00CE4BD3181B689F46CD4B180002F0DFF8CC4B180002F0DBF8C04600F018FE0300DAB2C84B1A70C74B1B78EB
:40028000002BF5D0C54B1A785623FB18303A1A70C24B1B782F2B42D9C04B1B78342B3ED85623FB181B7818000DF024FA03001A00BB4B1A80BA4B1B88002B35D1B94B180000
:4002C00002F034F8B54B1B78302B04D1B64B180002F0A8F828E0B14B1B78312B04D1B34B180002F09FF81FE0AC4B1B78322B04D1AF4B180002F096F816E0A84B1B78332BE4
:4003000004D1AC4B180002F08DF80DE0A34B1B78342B09D1A84B180002F084F804E0A74B180002F07FF800E0C046002000F08CFEB1E2A34B180002F075F8ACE2A14B1B7866
:40034000032B04D1A04B180002F06CF8A0E29D4B1B78042B00D09BE29C4B180001F0E6FF96E29B4B180002F05DF89A4B1B789A4A110018000CF0D4FF8DE2964A3B681000C0
:40038000190002231A0001F0C0FF84E2934B180002F048F88F4B00221A70914B00221A7079E2904B180002F03DF88F4B180002F039F85023FA183B681000190005231A007C
:4003C00001F0A3FF5023FB181B78002B04D1874B180002F027F826E05023FB181B78012B04D1834B180002F01DF81CE05023FB181B78022B04D17F4B180002F013F812E061
:400400005023FB181B78032B04D17B4B180002F009F808E05023FB181B78042B03D1774B180001F0FFFF3B685B78002B04D1744B180001F0F7FF03E0724B180001F0F2FF34
:400440003B689B781A00704B1100180001F06EFF3B68DB781A006D4B1100180001F066FF19E26B4B180001F0DDFF14E23B681A68684B1100180001F059FF674B180001F092
:40048000D1FF08E2574B180001F0CCFF634B180001F0C8FF0C23FA183B681000190041231A0001F032FF5E4B180001F03FFF5723FB1800221A7014E05723FB181B780F2273
:4004C000D31A0C22BA18D35C1A00564B1100180001F02CFF5723FB181A785723FB1801321A705723FB181B780F2BE5D94E4B180001F01CFF5723FB1800221A7015E05723FA
:40050000FB181B780122D31A0C22BA18D3181B7C1A00444B1100180001F008FF5723FB181A785723FB1801321A705723FB181B78012BE4D93D4B180001F0F8FE5723FB1833
:4005400002221A7015E05723FB181B780B22D31A0C22BA18D3181B7C1A00324B1100180001F0E4FE5723FB181A785723FB1801321A705723FB181B78092BE4D92C4B180080
:4005800001F0D4FE5723FB1800221A7068E0C046F04D0100844901009C490100E2210020E0210020B8490100D8490100E8490100F8490100084A01001C4A0100304A0100EE
:4005C000444A0100EA210020504A0100684A01007C4A0100D8210020800C0020904A010074100020A44A0100A84A0100D04A0100E04A01000C4B0100384B01005C4B01003C
:40060000804B0100904B0100A04B0100B44B0100C04B0100F84B0100344C0100604C01007C4C01008C4C0100944C0100B04C0100C44C01005723FB181B780F22D31A0C22AB
:40064000BA18D3189B7E1A00954B1100180001F06DFE5723FB181A785723FB1801321A705723FB181B780F2BE4D98E4B180001F05DFE5723FB1801221A7017E05723FB18AA
:400680001B780722D31A0C22BA182A21D3185B181B781A00824B1100180001F047FE5723FB181A785723FB1801321A705723FB181B78062BE2D97C4B180001F037FE0C2366
:4006C000FB182A229B5C002B04D1784B180001F0A9FE03E0764B180001F0A4FE754B180001F024FE5723FB1800221A7017E05723FB181B780F22D31A0C22BA183121D3184C
:400700005B181B781A00664B1100180001F00EFE5723FB181A785723FB1801321A705723FB181B780F2BE2D9634B180001F07AFEB1E0614B180001F075FE3B681B78002BFB
:4007400004D15E4B180001F06DFEA4E03B681B78012B04D15A4B180001F064FE9BE0594B180001F05FFE96E05023FA183B681000190005231A0001F0C8FD534B180001F0D1
:4007800051FE5023FB181B78002B04D14F4B180001F048FE26E05023FB181B78012B04D14B4B180001F03EFE1CE05023FB181B78022B04D1474B180001F034FE12E05023A4
:4007C000FB181B78032B04D1434B180001F02AFE08E05023FB181B78042B03D13F4B180001F020FE3B685B78002B04D13C4B180001F018FE03E03B4B180001F013FE3B689A
:400800009B781A00384B1100180001F08FFD3B68DB781A00354B1100180001F087FD3AE03B681B781A00324B1100180001F07EFD31E0304B3A681A602E4B1B68181D2D4B67
:400840001B681A005523FC18402300210FF082FC03002370274B1B689B890E2B1AD15523FB181B78002B15D1234B180001F0DAFD224B01221A701F4B1B685B681B781A0087
:400880001F4B1100180001F051FD03E0C04602E0C04600E0C046C046BD4617B090BDC0468C4C0100E44C01000C4D01001C4D0100244D01002C4D0100A44A0100544D010041
:4008C000644D0100744D01007C4D0100D04A0100E04A01000C4B0100384B01005C4B0100804B0100904B0100A04B0100B44B0100984D0100DC210020BC4D010074100020AB
:40090000E84D010080B584B000AF0023BB6062B600F0F6F9614B180000F002FB02F000FD00F0C0FA0300DAB25D4B1A705C4B1B78002B00D17FE05A4B1B78702B00D07AE097
:40094000584B180001F06EFD0023BB60564B7B600F23FB1800221A7035E002F0E1FC00F0A1FA0300DAB24E4B1A704D4B1B78002BF3D04B4B1B782F2B20D9494B1B78392B74
:400980001CD8474B1B78303B1A007B685343BA68D318BB607B680A21180001F005FB03007B603F4B1B78180000F0EAF90F23FB181A780F23FB1801321A7004E03B4B1800A0
:4009C00001F030FD04E00F23FB181B78052BC6D9374B180001F026FD364B1B78B968012218000CF08BFC03001A00334B1A80324B1B88012B04D1314B180001F013FD19E0C9
:400A00002D4B1B88032B04D12D4B180001F00AFD10E0294B1B88072B04D12A4B180001F001FD07E0244B1B88002B03D1264B180001F0F8FCC046254B1B78002B00D16DE7C7
:400A4000234B1B78022B00D068E7204B00221A70204B1B685B681A78FB1C1A70FB1C1B780133DAB2FB1C1A701A4B1B68FA1C5A60184B1B685B681B781A00174B110018008A
:400A800001F054FC134B1B68181D124B1B681A00002300210FF05EFB40E7C04641020000E22100202C4F0100A0860100444F0100A44A0100D8210020E0210020544F0100B2
:400AC000744F01009C4F0100BC4F010074100020EA210020DC210020D84F010080B586B000AFF860B9607A6000237B6109E0BB685A1CBA601B78180000F042F97B69013338
:400B00007B617A697B689A42F1DB7B681800BD4606B080BD80B582B000AF786039603A687B680021180001F0F9FBC046BD4602B080BDC04680B500AF054B03221A60054B2F
:400B400003221A60044B00221A60C046BD4680BD3000304030003140000E3F4080B500AF01F098FB03001B680C2B00D1FEE7FEE780B584B000AF7860104B1A687B68D3187C
:400B80001A000F4BD21A80231B019A4209DC0B4B1B68FB60094B1A687B68D218074B1A6007E001F077FB03000C221A6001235B42FB60FB681800BD4604B080BDAC0B00205B
:400BC000F821002080B586B000AF224B7B61224B3B61204B7B6135E03B691B68FB603B695B68BB603B699B683B6000237B600CE0FB681A68BB681A60BB680433BB60FB686A
:400C00000433FB607B6804337B607A683B689A42EED13B69DB683B6000237B6008E0BB6800221A60BB680433BB607B6804337B607A683B689A42F2D13B6910333B617B69F1
:400C4000013B7B617B69002BC6D101F029FBFFF759FEFEE7010000002054010080B582B000AF154B144A126801218A431A6000237B600FE07B68032B04D8104B7A68920099
:400C8000D35800E00E4B0F4A796889008B507B6801337B607B682F2BECD9FFF72BFA0A4B00221A60044B044A126801210A431A60C046BD4602B080BD0000104000000000EA
:400CC0005D0B000000000020C000002080B500AF00F06CF8C046BD4680BDC04680B500AF064B064A1268802109060A431A6000F019F800F01DF8C046BD4680BD00002440E2
:400D000080B500AF064B1B78002B04D1FFF7DEFF034B01221A70FFF7E1FFC046BD4680BD7610002080B500AFC046BD4680BDC04680B500AF00F09CF8C046BD4680BDC04677
:400D400080B582B000AF00237B60044B1B687B607B681800BD4602B080BDC0464003244080B582B000AF054B1B681F2213407B607B681800BD4602B080BDC046080324405E
:400D800080B582B000AF7860C046064B1B681F221340082BF9D0044B7A681A60C046BD4602B080BD080224404002244080B500AF1B4B1C4A1A601C4B00221A601B4B1C4A2B
:400DC0001A601C4B1C4A1A601C4B07221A601C4B00221A601B4B01221A601B4B164A1A601A4B00221A601A4B04221A60194B00221A60194B00221A60184B00221A60184B7A
:400E000000221A60174B00221A60174B00221A60154B1B689AB2154B1A80C046BD4680BD000024400B000002400024404800244001000A0000032440070000800403244086
:400E40001003244044002440000224400402244050002440880E2440C80E2440480F2440080F2440C80F2440880F24407810002080B500AF074B074A126807490A4090213B
:400E800009040A431A60054B054A12881A60C046BD4680BD00010240FFFF0FFF880F24407810002080B582B000AF00237B60FFF757FF031E03D0FFF743FF03007B60084BB6
:400EC0001A68D8239B00134005D000237B60044BD82292001A607B681800BD4602B080BDC00F244080B500AF064B00221A70064B00221A70054B00221A7000F009F8C0466E
:400F0000BD4680BDF3210020EC210020F221002080B500AF00F002FCC046BD4680BDC046B0B594B004AF78603E23FB1800221A802823FA183D4B1000190014231A0001F00B
:400F4000E4F93B4B1B78002B04D1FFF7CBFF384B01221A707B68002B5CD0364B7A681A603E23FB181B88002B29D11023FB181C22BA185A601023FB182022BA181A60102321
:400F8000FB1800221A812023FB181B221A802023FB181B225A802023FB1804221A711C23FB1808221A703E23FC180E23FA181023FB181100180002F08FFA030023803E2311
:400FC000FB181B88002B29D13E23FC182823FD18AE231A01184919480023029300230193052300932B0002F0CDF9030023803E23FB181B88002B11D1114B01221A703E2352
:40100000FC18104B0E220E2118000FF08BF80300238003E03E23FB1801221A803E23FB181B881800BD4610B0B0BDC0460C5001007A100020E4210020C80000208113000081
:40104000EA2100204850010090B585B000AF0200FB1D1A70FB1D1B78022B04D90E23FB1801221A804AE0294B1B78042B41D1284B1B78DBB21A00042313403AD1FB1D1B78DA
:40108000002B0BD1234B32221A82224B5B6820221A80204B5B6830225A8010E0FB1D1B78012B0CD11B4B96221A821A4B5B68C822D2001A80174B5B688022D2015A80164BB4
:4010C000FA1D12781A700E23FC18124B18000CF06DFC030023800E23FB181B88002B0DD10B4B1B78DBB204221343DAB2084B1A7004E00E23FB180422FF321A800E23FB1858
:401100001B881800BD4605B090BDC046EA210020F3210020000C0020F221002080B584B000AF78600A00FB1C1A700023BB60BB68002B20D07B689A79BB681A700F23FB182C
:4011400000221A7012E00F23FB181B780133BA68D3180F22BA18127879688A5C1A700F23FB181A780F23FB1801321A700F23FB181B78052BE7D9C046BD4604B080BDC04639
:4011800080B582B000AF78607B681B789AB27B6801331B789BB21B029BB213439BB21800BD4602B080BDC04690B585B000AF78600F23FB1800221A707B689B890B22934270
:4011C00032D17B68181D7A680F23FC18402300210EF0C0FF030023700F23FB181B78002B1AD17B685B681800FFF7CAFF03001A00022313409BB2002B07D00F4B1B687968C8
:40120000822252001000984706E00B4B1B6879680622FF3210009847084B1B78DBB201229343DAB2054B1A700F23FB181B781800BD4605B090BDC046E4210020F3210020BB
:4012400090B585B000AF78600F23FC187B681800FFF7AAFF03002370154B1B78DBB21A00012313401FD10F23FB181B78002B16D00823FB1812229A707B689A890823FB184D
:401280001A800823FB180F22BA181278DA700823FA187B68110018680DF0DCFC03E07B6818680DF04FFDC046BD4605B090BDC046F321002080B582B000AF7860C046BD462E
:4012C00002B080BD80B500AF044B00225A70034B00221A70C046BD4680BDC046F021002080B582B000AF7860C046BD4602B080BD80B500AFC046BD4680BDC04680B584B0EA
:4013000000AF78600E23FB1800221A707B689B79002B1CD10F23FB1800221A7012E00F23FB181B787A68D35C002B04D00E23FB1801221A700BE00F23FB181A780F23FB1864
:4013400001321A700F23FB181B78052BE7D90E23FB181B781800BD4604B080BD80B582B000AF0200BB1D1A80C046BD4602B080BD80B582B000AF7860C046BD4602B080BD9D
:4013800080B588B000AF02003960FB1D1A70D34B1B78DBB201221343DAB2D04B1A70FB1D1B78712B00D977E19A00CD4BD3181B689F461023FB1807221A701023FB1800220E
:4013C0005A701023FB18180003F096FF1023FB1807221A701023FB1801225A701023FB18180003F089FF0023002B01D001F090FFBC4B1B681800FFF781FF031E11D0B94B7B
:401400001B68180001F090FFB64B1B6800211800FFF784FEB34B1B6801211800FFF77EFE36E0B14B1B781A003F231A40AF4B1B789901FC231B010B401A43AD4B1B78190303
:40144000F8235B020B401A43AA4B1B785904FE231B040B401343BB61BB69DAB2A64B1A70BB691B0ADAB2A44B5A70BB691B0CDAB2A14B9A70A04B180001F056FF9E4B002191
:401480001800FFF74BFE9C4B01211800FFF746FE04200CF02FF90C23FB183F221A700C23FB1800225A700C23FB1818000CF040F9924B04221A70F6E03B681800FFF710FF25
:4014C000F1E03B681A788E4B1A70ECE03B687B617B691B78002B00D0E0E07B695B78002B0BD1884B0022DA80864B00229A80854B854A1A607B69834A5A60784B1B78DBB285
:4015000001229343DAB2754B1A70C7E0734B1B78DBB21A002023134000D0C1E07B4B1B78102B02D1794B0522DA70794B1B78774A110018000CF0FCF903001A000A23FB180B
:401540001A800A23FB181B88002B06D0714B1B680A22BA18110036209847604B1B78DBB201221343DAB25D4B1A7099E03B681800FFF7FEFE97E03B681800FFF7F9FE5F4B79
:4015800002221A708FE05D4B04221A708BE05B4B1B78022B00D185E0504B1B78DBB21A000123134000D17DE04C4B1B78DBB21A00042313400BD0514B03221A70474B1B789F
:4015C000DBB204229343DAB2444B1A706AE0434B1B78DBB21A00082313400BD0474B04221A703E4B1B78DBB208229343DAB23B4B1A7057E0414B1B78032B53D13F4B042273
:401600001A70454B1B78002B4CD10120FFF71CFD031E47D1394B03221A7043E03B681B881800FFF79BFE3EE0394A3B681000190002231A0000F069FE314B00221A70FFF7E8
:4016400057FE30E0FFF73EFE2DE03B685B88162B05D81E23FB183A6852881A8003E01E23FB1817221A801E23FB1819883B681A8800231204120C1B0C1B04134318000DF06C
:40168000F3FA10E03B681800FFF7DAFD0BE03B681800FFF70FFE06E0C04604E0C04602E0C04600E0C0460D4B1B78DBB21A00112313400ED0094B1B78DBB201229343DAB288
:4016C000064B1A70134B1B68FA1D1278396810009847C046BD4608B080BDC046F32100206C5101001C0C00207CF2FF0F7DF2FF0F7BF2FF0F78F2FF0F140C0020EA21002068
:40170000EC2100207C100020A80B0020800C0020F0210020E4210020F221002080B500AFC046BD4680BDC04690B585B000AF78600C23FC1800F001FA030023707B68022BC3
:4017400000D8AFE07B68302B00D9ABE05C4B1B78DBB21A007B689A420AD35A4A0F23FB1812781A70584A0E23FB1812781A703FE0564B1B78DBB21A007B689A420AD3544AB8
:401780000F23FB1812781A70524A0E23FB1812781A702DE0504B1B78DBB21A007B689A420AD34E4A0F23FB1812781A704C4A0E23FB1812781A701BE04A4B1B78DBB21A00B5
:4017C0007B689A420AD3484A0F23FB1812781A70464A0E23FB1812781A7009E0444A0F23FB1812781A70434A0E23FB1812781A707B68DA1E0B23FB183F498A5C1A700B2383
:40180000FB181B782F2B0DD97B682A2B0AD93B4B19221A60052000F087F90D23FB1819221A7007E0354B1B68DAB20D23FB183F210A401A700B23FA180D23FB1812781B7842
:401840009A4208D22D4B7A68033A2B498A5C1A60052000F069F92A4B7A6826498C4662441278D2B21A60274B0F22BA1812781A60254B0E22BA1812781A60052000F0C2F84C
:401880000B23FA180D23FB1812781B789A420CD91A4B7A68033A18498A5C1A60052000F043F902E0002000F07BF80C23FB181B78180000F046F9C046BD4605B090BDC0469F
:4018C00040F3FF0F41F3FF0F42F3FF0F43F3FF0F44F3FF0F45F3FF0F46F3FF0F47F3FF0F48F3FF0F49F3FF0F4AF3FF0F4BF3FF0F4CF3FF0F4DF3FF0F345301002CFF0B4001
:4019000028FF0B401CFF0B4020FF0B4080B584B000AF78600023FB60154B154A126801210A431A60134B144A1A60144B134A1268802109020A431A607B68002B12D01023D3
:40194000FB600CE0012000F05DF800F019F8031E02D00023FB6005E07B68013B7B607B68002BEFD1FB681800BD4604B080BDC04660F02E4078002E400220000010002E40E2
:4019800080B582B000AF054B1B68012213407B607B681800BD4602B080BDC0460C002E4080B582B000AF0200FB1D1A7001BEC046BD4602B080BDC04680B582B000AF78601B
:4019C00009E00D4B1B68180000F0AEF87B680B4A944663447B607A6880231B029A42F0D8074B1B687A685343180000F09DF8C046BD4602B080BDC046940C00200080FFFF75
:401A00008C0C002080B582B000AF0200BB1D1A80BB1D1B88044A12785343180000F084F8C046BD4602B080BD900C002080B500AF0F4B0F4A126801218A431A600C4B0C4A1C
:401A4000126802218A431A600A4B0A4A126830218A4310210A431A60064B064A126807218A4301210A431A60C046BD4680BDC04600F02E4000FF2E4080B500AF0F4B0F4AA2
:401A8000126802218A431A600D4B0D4A126807218A4302210A431A60094B094A126830218A4320210A431A60044B044A126801210A431A60C046BD4680BDC04600F02E4049
:401AC00000FF2E4080B500AFFFF7B0FF044B044A1268802109060A431A60C046BD4680BD00F02E4080B584B000AF78600C4B1B6801221340FB607B68002B02D0012B03D044
:401B000005E0FFF793FF06E0FFF7B6FF03E00020FFF746FFC046FB681800BD4604B080BD00F02E40000000000230800803D00138FDD1C046C046C0467047EFF3108072B69F
:401B4000704780F31088704780B582B000AF78600A00BB1C1A80BB1C1A887B681A60C046BD4602B080BDC04680B582B000AF78600A00BB1C1A80BB1C1A887B681A60C0466A
:401B8000BD4602B080BDC04680B584B000AF494B1B78DBB21B02484A1278D2B21343FB60464B1B78DBB21B02454A1278D2B21343BB60BB68434A934207D1FB68072B04D150
:401BC000414BBB600423FB6009E0BA68D4231B019A4204D1FB68042B01D13B4BBB603B4BBA681A603A4BFA681A603A4B1B78DBB21B02394A1278D2B21343FB60FA6880235C
:401C00009B019A4202D0FB68002B01D1334BFB60334BFA681A60334B1B78DBB21B02324A1278D2B21343FB60FB68304A934206D0FB682F4A934202D0FB68052B01D12D4BE9
:401C4000FB602D4BFA681A602C4B1B681B097B602B4B1B68AA2B29D17B68012B26D9214B1B78DBB20E2B21D1264B1B78DBB29BB21B0299B2244B1B78DBB29AB2BB1C0A43EA
:401C80001A80224BBA1C12881A60214B1B78DBB29BB21B0299B21F4B1B78DBB29AB23B000A431A801C4B3A0012881A60C046BD4604B080BD59F1FF0F58F1FF0F5FF1FF0F3E
:401CC0005EF1FF0F580B0000580D00006C002E4074002E405BF1FF0F5AF1FF0F0220000078002E405DF1FF0F5CF1FF0F0F0F000005050000050F000080002E40EC0F00F07C
:401D0000E00F00F06DF2FF0F6CF2FF0F84002E406FF2FF0F6EF2FF0F94002E4080B582B000AF0200BB1D1A80BB1D1B881800FFF769FEC046BD4602B080BDC04680B582B03B
:401D400000AF78607B681800FFF736FEC046BD4602B080BD80B500AF00F0ECF8C046BD4680BDC04680B500AF00F0F0F8C046BD4680BDC04680B500AF00F0E8F8044B180098
:401D800000F0A2F8032000F0ADF8C046BD4680BD991F000080B500AF034B180000F080F8C046BD4680BDC046991F000080B500AF014B1800BD4680BD0202000080B582B03A
:401DC00000AF78602B231800BD4602B080BDC04680B582B000AF78602B231800BD4602B080BDC04680B582B000AF78602B231800BD4602B080BDC04680B582B000AF786078
:401E00002B231800BD4602B080BDC04680B582B000AF78602B231800BD4602B080BDC04680B582B000AF78602B231800BD4602B080BDC04680B582B000AF78602B23180058
:401E4000BD4602B080BDC04680B582B000AF78602B231800BD4602B080BDC04680B500AF2B231800BD4680BD80B582B000AF0200FB1D1A702B231800BD4602B080BDC0467C
:401E800080B582B000AF786039602B231800BD4602B080BD80B500AFC046BD4680BDC04680B582B000AF786000F050F87B68180000F00AF8032000F015F800F03BF8C046B7
:401EC000BD4602B080BDC04680B582B000AF7860034B7A681A67C046BD4602B080BDC0460000002090B585B000AF0200FB1D1A700623FB600B23FC18FFF71FFE03002370F1
:401F00000B4B0B4A1268C0218A431100FA1D1078FA68904002000A431A600B23FB181B781800FFF70EFEC046BD4605B090BDC0460CE400E080B500AF034B802252011A60B3
:401F4000C046BD4680BDC04600E100E080B500AF034B802252011A60C046BD4680BDC04680E100E090B583B000AFFC1DFFF7E5FD03002370074B074A126804218A431A60EF
:401F800030BFFB1D1B781800FFF7DBFDC046BD4603B090BD10ED00E080B500AF12F0DCFCC046BD4680BDC046002243088B4274D303098B425FD3030A8B4244D3030B8B4259
:401FC00028D3030C8B420DD3FF22090212BA030C8B4202D31212090265D0030B8B4219D300E0090AC30B8B4201D3CB03C01A5241830B8B4201D38B03C01A5241430B8B4274
:4020000001D34B03C01A5241030B8B4201D30B03C01A5241C30A8B4201D3CB02C01A5241830A8B4201D38B02C01A5241430A8B4201D34B02C01A5241030A8B4201D30B02B4
:40204000C01A5241CDD2C3098B4201D3CB01C01A524183098B4201D38B01C01A524143098B4201D34B01C01A524103098B4201D30B01C01A5241C3088B4201D3CB00C01AAB
:40208000524183088B4201D38B00C01A524143088B4201D34B00C01A5241411A00D20146524110467047FFE701B5002000F0F0F802BDC0460029F7D076E7704703460B43BD
:4020C0007FD4002243088B4274D303098B425FD3030A8B4244D3030B8B4228D3030C8B420DD3FF22090212BA030C8B4202D31212090265D0030B8B4219D300E0090AC30BE9
:402100008B4201D3CB03C01A5241830B8B4201D38B03C01A5241430B8B4201D34B03C01A5241030B8B4201D30B03C01A5241C30A8B4201D3CB02C01A5241830A8B4201D3EF
:402140008B02C01A5241430A8B4201D34B02C01A5241030A8B4201D30B02C01A5241CDD2C3098B4201D3CB01C01A524183098B4201D38B01C01A524143098B4201D34B01F1
:40218000C01A524103098B4201D30B01C01A5241C3088B4201D3CB00C01A524183088B4201D38B00C01A524143088B4201D34B00C01A5241411A00D201465241104670470C
:4021C0005DE0CA0F00D04942031000D34042534000229C4603098B422DD3030A8B4212D3FC22890112BA030A8B420CD3890192118B4208D3890192118B4204D389013AD070
:40220000921100E08909C3098B4201D3CB01C01A524183098B4201D38B01C01A524143098B4201D34B01C01A524103098B4201D30B01C01A5241C3088B4201D3CB00C01AE0
:40224000524183088B4201D38B00C01A5241D9D243088B4201D34B00C01A5241411A00D20146634652415B10104601D34042002B00D54942704763465B1000D3404201B530
:40228000002000F005F802BD0029F8D016E770477047C046014B18687047C046541000200E4B70B500251E000D4CE41AA410A54204D0AB00F35898470135F8E713F09EF8D9
:4022C000084B00251E00084CE41AA410A54204D0AB00F35898470135F8E770BD0854010008540100085401001054010030B50024A24208D0035D651C0C5DA34201D0181BFC
:4023000002E02C00F4E7002030BD002310B59A4203D0CC5CC4540133F9E710BD03008218934202D019700133FAE770470FB40B4B13B51C68002C05D0A369002B02D12000C6
:4023400000F03CFA05AB049AA1682000019300F001FC16BC08BC04B01847C0465410002070B505000E00002804D08369002B01D100F024FAAB69AC68002B02D1280000F0A3
:402380001DFA254B9C4201D16C6808E0234B9C4201D1AC6803E0224B9C4200D1EC68A3891B0702D52369002B11D12100280000F09BF800280BD0012040422BE0013B0136F7
:4023C000A360002B08DB23685A1C226019703178A3680029F2D10BE0A269934201DB0A29F1D12200280000F027F8431CEFD1E2E7013BA360002B08DA22000A31280000F082
:402400001BF8431CD7D00A2004E00A2023685A1C2260187070BDC0466853010088530100A853010010B5034B01001868FFF798FF10BDC04654100020F8B505000F0014002C
:40244000002804D08369002B01D100F0B7F9234B9C4201D16C6808E0214B9C4201D1AC6803E0204B9C4200D1EC68A369A360A3891B070AD52369002B07D023682269FEB2EC
:40248000981A636998420FDB08E02100280000F02BF80028F1D0012040421DE02100280000F01EF90028F6D1A3680130013BA36023685A1C22601F706369984205D0A3899A
:4024C0003000DB0708D50A2E06D12100280000F007F90028DFD13000F8BDC0466853010088530100A8530100364B70B51D6806000C00002D05D0AB69002B02D1280000F0E5
:402500005DF9314B9C4201D16C6808E02F4B9C4201D1AC6803E02E4B9C4200D1EC680C22A35E9AB2110723D4D10607D409220120326037321343A381404242E0530713D5DD
:40254000616B002908D023004433994202D0300000F02CFA002363632422A3899343A38100236360236923600822A3891343A3812369002B0BD1A0238022A1899B00920098
:402580000B40934203D02100300000F0D1F90123A289134005D00023A36063695B42A36103E0920700D46369A36000202369834207D10C22A35E1A0603D540221343A381A8
:4025C000013870BD541000206853010088530100A8530100F7B58A8905000C0013075AD44B68002B02DC0B6C002B19DDE76A002F16D000232E682B6080235B011A4001D01D
:40260000606D14E00123216A2800B847431C0ED12B68002B0BD01D2B01D0162B02D12E6000205AE04022A3891343A38155E0A3895B0706D56368C01A636B002B01D0236C73
:40264000C01A00230200216A2800E76AB847A389421C06D129681D293AD8204ACA40D20736D50022626022692260DB0405D5431C02D12B68002B00D16065616B2E60002903
:40268000CED023004433994202D0280000F08EF90020606321E00F69002FC1D00B680F60DB1B01930023920700D14B69A36003E0019B3F181B1A0193019B002BB0DD019B3B
:4026C0003A00216A2800A66AB0470028F0DCA389402201201343A3814042FEBD010040200B6970B505000C00002B01D100201CE0002804D08369002B01D100F05FF80B4BE6
:402700009C4201D16C6808E0094B9C4201D1AC6803E0084B9C4200D1EC680C22A35E002BE4D021002800FFF755FF70BD6853010088530100A853010010B5024900F0B0F8D2
:4027400010BDC046E1260000002310B5040003604360836081814366C281036143618361190008225C30FFF7D9FD054B24626362044BA362044BE362044B236310BDC0460A
:40278000D1300000F9300000313100005D31000070B568254B1E5D430E002900743100F051F9041E08D000212A00016046600C30A0606832FFF7B2FD200070BD836913B566
:4027C0000400002B28D18364C3640365134B144A1B6882620193984201D101238361200000F020F86060200000F01CF8A060200000F018F80022E06004216068FFF7A4FFBC
:4028000001220921A068FFF79FFF02221221E068FFF79AFF0123A36113BDC0466453010039270000F8B51D4B06001D68AB69002B02D12800FFF7C2FF4835AC686B68013B3A
:4028400005D40C22A75E002F10D06834F7E72B68002B01D02D68F0E704213000FFF798FF28600028F6D10C23336016E0012320005B42E3810233A38167662760A7606760F7
:4028800027616761A7615C3008223900FFF746FD20006763A763A764E764F8BD64530100F7B504000700002601914834002C16D06368A5680093009B013B00930DD4AB89FA
:4028C000012B08D90E22AB5E013304D029003800019B984706436835EDE72468E6E73000FEBD000070B50E001D000E23C95E90B01400002906DA00232B60B3891B060FD5BC
:4029000040230FE001AA00F055FC0028F3DBF023029A1B021340054A9B185A4253412B608023DB000020236010B070BD00E0FFFFF7B502268B8905000C00334210D101ABA0
:402940006A46FFF7CFFF00990700280000F07AF800280CD10C22A35E9A0523D43343A3812300473323602361012363611AE080220D4BAB62A38920601343A381009B206186
:402980006361019B002B0AD00E23E15E280000F023FC002803D00122A3891343A381A3891F43A781F7BDC0463927000070B50500002944D00C1F2368002B00DAE418280031
:4029C00000F03BFC1E4A13681100002B02D16360146031E0A3420DD92268A018834203D118685B688218226063600C6024E0A24203D813005A68002AF9D11E689819A0429D
:402A00000BD12168711858181960824214D110685268411819605A600EE0A04202D90C232B6009E021686018824203D1106852684118216062605C60280000F0FFFB70BDA8
:402A4000D4210020032370B5CD1C9D43083506000C2D01D20C2501E0002D01DBA94202D90C23336048E0300000F0E7FB234B1C681A002100002913D00B685B1B0DD40B2BD8
:402A800002D90B60CC181EE08C4202D1636813601AE04B6863600C0016E00C004968E9E7174C2368002B03D1300000F0FFFA20602900300000F0FAFA431C18D00323C41C00
:402AC0009C43A0420DD12560300000F0B7FB200007220B30231D9043C31A0ED05A42E2500BE0211A300000F0E1FA431CEBD10C233000336000F0A2FB002070BDD4210020A3
:402B0000D0210020936810B5013B9360002B05DA9469A34208DBCBB20A2B05D01368581C10601970C8B201E0FFF786FC10BDF8B506000F001400D518AC4208D021783A005B
:402B40003000FFF7DFFF0134431CF5D100E00020F8BD0000F0B59FB006000F0002920593002804D08369002B01D1FFF727FE7F4B9F4201D1776808E07D4B9F4201D1B7682F
:402B800003E07C4B9F4200D1F768BB891B070AD53B69002B07D0002306AD6B6120336B761033AB763DE039003000FFF79DFC0028F1D001204042D6E0059A111D1268059101
:402BC000002A00DA7FE00992013423782E2B00D18DE021780322684800F024FB002807D0654B2A68C01A4023834013432B6001342178631C062261480293297600F012FB82
:402C0000002800D19DE05E4B002B00D090E00722059B07339343083305936B69039A9B186B61029C2378002B04D1029BE31A049312D003E0252BF8D00134F3E7049B029ADD
:402C400039003000FFF773FF431C00D186E06A69049B944663446B612378002B7ED00122002352426A6002A95432521801342B60EB60AB601370AB6521780522414800F0F9
:402C8000D1FA002808D03F4B2A68C01A0123834013432B600134EFE72B68DA0604D55322202102A8121811701A0704D553222B2102A81218117022782A2A00D17CE7099B53
:402CC00000200A2105E05242EA60022213432B607AE72278303A092A04D84B4301349B180120F6E7002800D16FE709936DE763782A2B0AD1059B02341A1D1B680592002B3D
:402D000001DA01235B42079363E700230A201A0001346B6021783039092904D84243013452180123F6E7002B00D152E7079250E705AB00933A00144B2900300000E000BF9E
:402D400007E005AB00933A000F4B2900300000F08BF80390039B013300D05EE7BB895B0600D526E70B981FB0F0BDC0466853010088530100A8530100CE530100D2530100C7
:402D800000000000C85301002F2B0000F7B5170001938A680B6900900C00934200DA130022003B6043321278002A01D001333B6023689B0602D53B6802333B6006252368D0
:402DC0001D401ED0230043331B785A1E9341226892061CD53020E1184331087021005A1C45310978A2184332023311700FE022000123193201990098089EB047431C0ED0C9
:402E00000135E3683A689B1A9D42F0DBDAE72200019943320098089DA847431C02D10120404220E006232068E1683A6803400025042B03D18D1AEB43DB171D40A36822695C
:402E4000934201DD9B1AED180027BD420AD0220001231A3201990098089EB047431CDED00137F2E70020FEBDF0B58BB006920A0043320793059004920A7E0C00109B6E2AF8
:402E800000D1ABE011D8632A22D009D8002A00D1B5E0582A00D0C5E045310A70814A4FE0642A1DD0692A1BD0BCE0732A00D1AAE009D86F2A29D0702A00D0B3E0202209684C
:402EC0000A43226037E0752A1FD0782A33D0A9E00E001A684236111D196013683370A4E021681A68080606D4490604D5111D19600023D55E02E0111D19601568002D3BDA7F
:402F00002D23049A6D42137036E021681A68080606D4490604D51568111D1960ADB202E0111D196015685F4B227E039308276F2A1DD00A271BE022007821453211705A4A9F
:402F400019680392081D226818600D68100602D4500600D5ADB2D30702D520231A4322601027002D03D1202322689A4322602300002243331A7002E00A274A4B03936368A4
:402F8000A360002B09DB0422216891432160002D05D1049E002B11D07BE0002D79D0049E28003900FFF786F8039B013E5B5C280033703900FEF7F8FF051EF1D1082F09D188
:402FC0002368DB0706D563682269934202DC3023013E3370049B9B1B23612BE009681A68080607D4490605D5111D19601368A28A1A8004E0111D1960136862691A6000230C
:40300000049E236116E01A68111D1960166800216268300000F006F9002801D0801B6060636803E0260042363270012323610023049A1370079B09AA00932100069B05984E
:40304000FFF7A4FE431C02D10120404227E02369320006990598079DA847431CF4D0236800259B070FD4099BE068984217DA180015E022000123193206990598079EB047CA
:40308000431CE1D00135E368099A9B1A9D42F0DBE9E72600039B42361B7833708EE70BB0F0BDC046D9530100EA530100002370B5064C050008002360FDF75AFD431C03D145
:4030C0002368002B00D02B6070BDC046F421002070B50C000E25495F00F0B2F8002803DB636D1B18636503E0A289024B1340A38170BDC046FFEFFFFFF8B51F008B8905000A
:403100000C001600DB0505D50E23C95E0022022300F074F8A289054B28001340A38132000E23E15E3B0000F01FF8F8BDFFEFFFFF70B50C000E25495F00F060F8A389421C3B
:4031400003D1054A1340A38104E0802252011343A381606570BDC046FFEFFFFF10B50E23C95E00F015F810BD70B50500080011000022064C22601A00FDF7B0FC431C03D171
:403180002368002B00D02B6070BDC046F4210020002370B5064C05000800236000F064F8431C03D12368002B00D02B6070BDC046F4210020002370B5064C050008001100BC
:4031C000236000F059F8431C03D12368002B00D02B6070BDF4210020002370B5064C05000800236000F050F8431C03D12368002B00D02B6070BDC046F421002070B505002D
:40320000080011000022064C22601A0000F044F8431C03D12368002B00D02B6070BDC046F4210020C9B28218904204D003788B4202D00130F8E70020704770477047000063
:4032400070B50500080011000022064C22601A0000F02AF8431C03D12368002B00D02B6070BDC046F421002058220120014B40421A607047F421002058220120014B404205
:403280001A607047F42100205822024B00201A607047C046F421002058220120014B40421A607047F421002058220120014B40421A607047F4210020134A1088810703D067
:4032C0008107890F401A001D11791030484381B25088820703D08207920F801A001D800040180A494030098980B2CA0701D0503080B2890706D504495422091F097851437C
:40330000081880B270470000A20C00209010002010B501F011FF10BD10B501F013FF10BD10B500F05BFA10BD10B50749044609780220002907D1204601F054FF002802D14F
:4033400020460AF0DBFA10BD400E002070B504460120002C12D02368002B0FD0616800290CD0074D06222889208118462968FEF7CCFF6968606809780170002070BD000087
:4033800090100020FFB585B0002768460E9D07734F481C460078002802D0082009B0F0BD10990F9801900095029105A807C800F007F90028F2D16946264603AB8446087303
:4033C000002C19D0002115E08A00B75A082F09D990198078002805D0083FB7521878401C187005E0002914D00027B75290198770491CC9B2A942E7D360460028CED10F9831
:40340000002809D0109901F047FA002804D00120C4E701208446EFE701F094FE2D480021416081600599016021888180022D07D3A1798171A17AC171A1890181218A418168
:4034400000211EE0481C19E082008B00A75AE65ABE46BE4211D26F463E80B4461E190296B678BE7001967646E6521719029EBB78B3706646A652019EBE70401CA842E3D3E5
:40348000491CA942DED3134822460C3000906846037B0799069800F01BF90028B8D168460B4C007B60700B480C3001F07BFE0028AED1084907480C3107F0A2FA0028A7D15D
:4034C00007F0BCFA0028A3D10121217066E700009C0C002084100020F8B5054636480F460078002802D002242046F8BD002F60D000243249002D16D02A89D0070DD0286881
:40350000002808D003881B3BE12B04D24088FB2801D81B2801D2012409E0900707D56868002804D1F7E70020088108604860002CDAD122482E8906811F481B21801D0180C9
:403540004180042101711C490020891C0870F00705D019480622801D2968FEF7D6FE1749B00703D56A68144812788270124D0E46AD1D281F0D60486001F05AFE284601F0EB
:4035800049FE30890DF044FF30890DF0DFF828880DF0E2F830890EF0A5F803461033FFF78BFE1F21C018890140183880A91F88809AE7012498E700009C0C00209010002029
:4035C000FFB58446384F1C460020BB883F78054602460646002F11D100290ED0029999420BD36146002908D0002C06D00A99002906D02E4B0B99994202D2012004B0F0BD65
:40360000002144E0AB001F19BF78002F3BD0E35A002B38D07B43591889B22B0000F04AF8050410161C253100A7782388BC46FF27233BEB37BB4222D26346032B1FD322E0EB
:40364000A388002B1FD0302B19D31CE02389002B19D0282B13D316E0A289002A13D01346134F233BBB420AD20DE0268A002A0AD033460F4F233BBB4201D2964203D901202E
:403680000EE0002001E000280AD16D1CEDB2099B9D42B7D31C2463435B1802998B42ACD89642AAD8AAE700009C0C002079020000BAFF000030B47446641E2578641CAB428D
:4036C00000D21D46635D5B00E31830BC18470000FFB583B0002469460C801F4606468C80002806D00598002803D004983043800701D0012466E0002FFBD034490498098825
:403700008842F6D3FEF746FBFEF72CFB00F016FC002855D100F07EFD002851D12C49084601F0EEF805042D0C4AD12A480499066081800021C18007810C98007AC00704D08F
:40374000684601F018FD040007D10C98007A800703D501A801F018FD0446BF1DFEB2002C20D13146059800F05DF804001AD10DF0C7FF040016D16A46108892880836851867
:40378000144AF1B29088D288AEB29319984207D3401B801A80B201F0A3FB050007D000E0FF25012400F062FA002D04D008E0F8B200F01CF9F6E700F085FA07490120087002
:4037C00000F0CEFB204607B0F0BD0000A00C0020113900009C100020A80C002010B503480078012801D101F01DFA10BDA80C002070B5084B0446DA889E8803205518B54293
:4038000006D8186880182060D8884018D880002070BD00009C10002001480089704700009C100020F0B587B007460D4600208900009006916846FFF7DBFF844600285DD1AA
:40384000304800990160002117E02E4B88001A680629115406D22C4C0419667882185670628805E0C419203CA67A8218567022891B68C018491C4280C9B2A942E5D3002405
:403880002DE0601CC2B2059025E01E4FA30039689600581840887118039604904E88B04217D938466F46FE80B6464F786E4677710297049F4F800168039F5E187678791869
:4038C0004E700168764659184E800068029F18184770521CD2B2AA42D7D30598C4B2AC42CFD36046002809D168460699FFF780FF8446002802D1054900980860604607B0B1
:40390000F0BD0000AC0C002030540100B00C00207047000010B5002809D005494A68002A05D0011F08788000105801F087FA10BDAC0C002010B50446FFF76EFFC0B2801D05
:40394000A0420CD307484068002808D0A100405801F0E6F9002801D00470001D10BD002010BD0000AC0C0020F8B516460D460446FFF752FFC0B2801DA04203D20020C04394
:403980000090F8BDB2B2E9B2684601F0EFF90099481C03D0024AA000526811500098F8BDAC0C0020F8B50746FFF736FF801DC6B20A49002005460C680DE06178002907D00E
:4039C0006188B94202D32078FFF7B4FF002804D1241D6D1CEDB2B542EFD3F8BDAC0C002010B5002801D0FFF795FF10BD70B506460948002504680BE06178002905D062880D
:403A00002078121D0023FFF7AFFF241D6D1CEDB2B542F1D370BD0000AC0C0020FFB581B00A9F16000C4620D000F0F6F8054604281BD0002F0CD03846FFF7B4FF20492A01E3
:403A400051184860002810D03A460499FEF75DFC1B4928010E504618778101980570200406D47D20C000444304E0FF2005B0F0BD6404640C00F0BEF80746042807D000F06E
:403A800053FAA0420BD800F04FFA201A03E0204600F0AEFA0020F06035720020E6E700F043FA009000F0BAFA00980121001B009000F0F0F802493A0151180098C860E6E782
:403AC000A8100020F8B5042801D3FF20F8BD060116483418217A042903D0E068002802D017E00020F8BD00F01FFA054600F096FA00F0A0F804280CD001010C480F18F868D2
:403B00000021451900F0C6F80020F860284600F06FFA6068054D002801D0FFF761FF042020720020A8516081E060DAE7A8100020FEB500266A46304601232549050169180F
:403B40000D7A042D02D0C96800291BD000211154401CC0B20428F0D300246846005D002830D01B48210108184189476805680291002101604160042241810272C160002EF0
:403B800002D015E01354E3E700F054F804280ED001010F4808180190C6680021304600F079F801980021C160304600F021FA0126002D07D038460299A847002F02D0384689
:403BC000FFF70EFF641CE4B2042CC6D3FEBD0000A81000200EB5002005216A460090118150810348694600680EF011FC0EBD0000B40C0020074A0020010189180B7A042BC4
:403C000002D0C968002903D0401CC0B20428F3D370470000A81000200549002002015218127A042A03D0401CC0B20428F6D37047A810002030B50A4B04200A4C00210A019C
:403C40001219157A042D06D0D268002A03D09A4201D808461346491CC9B20429EFD330BDFFFF0000A81000207047000030B50020074C05460423020111190B72A5504D6091
:403C8000401C4D81C0B2CD600428F4D330BD0000A810002030B5094C00231A011219157A042D04D0D568002906D02D18D5605B1CDBB2042BF1D330BD2D1AF7E7A8100020B5
:403CC000002070471CB5002469460C70142001902346054A05480EF09FFB04480068401C00D1FF2420461CBD413D0000B40C00203EB5124A0146FF2000230124126800292A
:403D00000DD0012914D0042908D104206946009308814B8110460EF07AFB80B23EBD6846009304814381694610460EF06BFBF4E768460093048143816946EBE7B40C002028
:403D400070B545890468416800890300FFF7B2FC08280509091E22282628002005F000FD1EE0022908D0C8B22A4621460CF042FC2046FFF735FE13E002202A4621460CF0F9
:403D800039FC2946204600F00DF809E000200EF03DF805E02046FFF7CBFE01E0FEF77AF8002070BD014B0022DB681847B80C002070B5448905680089022803D0032809D04C
:403DC000FF2070BD2246094C0023A46829460120A04708E0FFF7A0FA241DA2B200232946022006F0C0FC002070BD0000B80C002070470000024800214160018041807047B4
:403E0000B80C002070B50C46002186B016460391012802D0022859D116E003A9012006F0F7FC01281BD1039D324621462846FEF76CFA0095287801900220694608814E8199
:403E40006846FFF7B5FF41E0214D002B686809D0049004A9022006F0DBFC01281DD0022006B070BD002812D0298840182146FEF74CFA28880024801980B228806988091D29
:403E8000884206D12C801348FFF792FF03E00320E6E788421AD96C6018E004986860E278A378110219430B4A698000231060E3565360032313815181A1788170E178C1705A
:403EC0006178417021780170042028800020C7E7B80C0020E81000203EB515460C46022803D004280CD000203EBD0091019002206946088107484A8100680EF088FA07E073
:403F00000CF078FB044B0022DB6829462046984701203EBDB40C0020B80C0020014AD16090607047B80C0020034801688068081A0A21484300097047F410002010B5FDF7B2
:403F400019FF4C2204490548FEF7DFF903490120C870002010BD00004C540100F814002010B5FDF7F7FE10BD70B5134C2368002B08D0207B1149C20705D0400840002073BA
:403F80008868A08070BD88680B4AA18880B29268814203D90A4D691A091802E0814202D2411A5118A160A080A0689842EAD30EF04BFA00F013F870BDF4100020C0102E40C6
:403FC000FFFF000010B508461946FFF7A7FF10BD704710B5FFF780FF10BD000003480021016041608160C16070470000F4100020024610B5FF20002A0CD0FFF7EFFF064C77
:404000000321207B0843207310010A21FEF752F82060002010BD0000F410002000B504480A21806848430209FFF7D8FF104600BDF41000200248007B8007C00F7047000057
:40404000F410002010B54B490868002802DA4A4B01221A70022290430860484800694549C00B4031096A0246C907C90F0A4259D0012000F097FA3F480E216C30FDF774FDBA
:404080003E4820218430FDF76FFD3C4814219C30FDF76AFD3948FF21C131A430FDF764FD3648FF212F31B030FDF75EFD33483449BC30FDF759FD31483249AC30FDF754FD19
:4040C00030492E48491CB430FDF74EFD2B482E49B830FDF749FD29482C49CC30FDF744FD26482B490830FDF73FFD24482949A830FDF73AFD214828498830FDF735FD1F48DC
:4041000026498C30FDF730FD1C481921C9029030FDF72AFDFDF738FDFDF748FEC0B2022812D01FE000290BD0002101420AD0114801216030FDF718FD0120FDF7FFFD97E72A
:404140000121F2E7FF2010BD15491648FDF70CFD14481549001DFDF707FD124800210830FDF702FD54200449C043891C0870002010BD000000F02E40C80C002000002E409C
:40418000320300002F3F00003102000010520000EC160000FA12000031D000003AE300009956000080012E40F80F000070B50646581C80B245086D00002408E0304600F073
:4041C000C1F81055000A1119A41C4870A4B2AC42F4D3D80705D0D0182038D15CC47FD454C17770BD30B50A4C002100195B1E07E0541864782502545C2C430480891C89B232
:404200009942F5DB994201D1515C018030BD000000102E4010B5FF2000F0C4F90F49FF2048700E481021801D41800121417001700A490020C91C4870FFF704FF04000AD1BC
:4042400000F010F907210648FDF77EFC044807211830FDF779FC204610BD0000C80C0020CC112E4070B5002405465B1E0AE0284600F068F8010A161971702D1D1055A41C8B
:40428000ADB2A4B29C42F2DB9C4203D1284600F059F8105570BD000070B500210A4D5B1E0AE0541864782602545C344346193480001D891C80B289B29942F2DB994202D17C
:4042C000515C4019018070BD00102E40F0B50599091FCFB200217E1E0BE0541864782502545C2C43164D45192C80001D891C80B289B2B142F1DBFC0712D01C78515C2402C3
:404300000F4A0C4381180C809C785D78001D210280B2294384182180001D80B2D9780CE059781A7809021143054A84182180001DD9789B78090280B2194380180180F0BDF2
:4043400000102E40014940180088704700102E4010B50B490020487000F084F8002000F047F9002000F034F907210648FDF7ECFB044807211830FDF7E7FB002010BD0000A6
:40438000CB0C0020CC112E4010B50B46062812D006DC01280CD0032801D1FFF7D9FF10BD0A28FCD00B28FAD105480078107010BDFFF730FF10BD1146184600F035F910BD76
:4043C000CE0C0020F8B5244DAC6A0127A007234E002816DA307806280ED1286A384328621F480069F903084381B21D481030FDF7BBFB042000F0D6F8174802212830FDF7A2
:40440000A3FBE00718D000F01FFF01280FD1002000F06CFF062000F0C5F81049FF20C91E48707078002802D1686B384368630A4801212830FDF788FBE0050BD530780428BB
:4044400002D1052000F0AEF80348FF2101312830FDF77AFBF8BD000040F02E40CB0C002000002E4010B503212348FDF77DFB0120FDF754FC20483038406A204C800761782D
:40448000800F890001431C480C38FDF76DFB6078002808D0401E022181401820FDF7F4FEC000083800E0B82081B21548FDF75CFB1348032109021438FDF756FB1048114904
:4044C000B830FDF751FB612189010F48FDF74CFB0D480321001FFDF747FB0C490C48FDF743FB0B480B496038FDF73EFB084801218838FDF739FB10BD70F02E40CE0C0020F2
:40450000D8102E4090890000041E2E40FF0F000058122E40209000000848017806290BD140780749002803D1486B400840004863C86A01221043C86270470000CB0C0020A8
:4045400040F02E400148007870470000CB0C002000B50300FFF7AEF8080D050D0B070507090D012000BD032000BD042000BD022000BDFF2000BD0000074A9168D26889B266
:40458000064B92B2994204D105498A4201D1012100E000210170704780002E4033D000003FE3000010B50446FDF7DCFB072C01D9FF2C01D102480470FDF7CCFB10BD000042
:4045C000CB0C00200149487070470000C80C002010B5064A012805D01921C9021046FDF7C3FA10BD1D21C902F8E7000090002E4010B50A4A141D012808D009491046FDF75E
:40460000B3FA08492046FDF7AFFA10BD04491046891CFDF7A9FA0349491DF3E788002E4031D000003AE3000070B50C460546FDF7BDFBC0B202280E49287804D0FF2810D051
:404640004C280CD810E0FF2809D10A4AD0680004800F032801D0087807E09069000A553803E00878207070BD4F382070087070BDCA0C002000002E40F0B50122002834D0AB
:40468000002932D00424420600D00524792342065B06D21800D0641C034600221EE00C2516466E43124D00277519AF72104F002ABB51696007D0661EB24209D10D4E86198A
:4046C0007606760E05E05E06760E8027BE1B00E080269B198919521C2E81D2B2A242DED303480549006B002288611046F0BD00008013002079020000D40C002018B500202E
:40470000694608700A48006900280ED0132149014018047E684604704F21C900054800F05BF8A04201D0012018BD002018BD0000D40C002004110020074900200C22424358
:404740005218927A012A05D0401CC0B20628F5D3002070470120704780130020F8B50F000446164609D01A4D1A496868A04202D94018A04201D38E4201D90120F8BD3946FE
:404780002046FDF7B3FD002820D0324639462046FDF7BBFD0E49F0B2012620318E7600210C220B4653430A4A9A1813895568EF18A74207D9641B1B1B9672834206DAC01AB8
:4047C0001469C0B2491CC9B20629E9D30020F8BD8013002079020000034610B50020024604E09C5C2018521CC0B292B28A42F8D310BD000070B500F05FF8084C064A216950
:4048000007480D46FDF781FD05492846FFF734FFFFF774FF207070BD79020000D40C002004110020002070470020054A002902D0012902D002E0906000E0D06000207047B3
:40484000D40C002070B5084C154608460549E26889182A46FDF759FDE0684019E06028B270BD000004110020D40C00203EB50A226946FFF7E7FF044606480A220068694681
:40488000FDF734FD002802D00020C0433EBD20463EBD0000D80C0020002802D0044A914201D2FF20704703494A6108610020704779020000D40C0020024800218160C16073
:4048C00070470000D40C002070B5074C15460548A26880182A46FFF741FFA0684019A06028B270BD04110020D40C002010B503490A220968FFF7E8FF10BD0000D80C0020A0
:4049000010B50F4A002313600E4A13600E4B18600E4801600E49012008600E490860000290600E490C4808600D4914300860FF381538506000F0BCF800F0CAF9002010BD52
:40494000080D0020F00C00201C0D0020200D00200C0D0020FC0C0020C8140020000D0020140D0020014610B50020002910D0094B1A689C685118A14209D25868196080187E
:404980008A0704D08A07920F891A091D196010BD002010BDF00C0020F8B50024164E671E321F3D463168136806E01422624310328A58521C1BD0641C9C42F6D36A1C14D0D7
:4049C0002C461422544322460C3288500C214843FFF7C8FF3168002808510AD031680020103408517068401C70602846F8BD2546E4E73846F8BD0000000D0020F3B50026B0
:404A0000F64381B000281BDB1E490968884217D80299002914D01B4F142204463F1D54432546396810354859401C09D0FDF79AF938682F1F4159C359994203DBFDF78AF956
:404A40003046FEBD214608310091465801590C20704308180C220299FDF757FC0948761C001D0068C159B14200D100260549009A091D865008684159491C4151FDF76AF925
:404A80000020FEBDFC0C0020002803DB07490968884202D90020C043704704491422091D096850431030085870470000FC0C0020F0B500200D4A451E0346171F50600FE0E4
:404AC00014260146714314680E1DA3510C461668083433511668083435511468401C635039688842ECD30020F0BD0000000D0020F3B50026F64381B0002841DB234909680E
:404B000088423DD8029900293AD0204F142204463F1D54432546396810354859401C2FD0FDF720F93868415900292BD0211D009146580C21005971430F46C1190C22029890
:404B4000FDF7E3FB11480021001D0068761C00590C34C0190160416081600C48001D00680159B14200D100260849009A091D865008684159491E4151FDF7ECF80020FEBDC3
:404B80003046FEBDFDF7E6F8FAE70000FC0C0020FEB504460D4600201E49089E0860471E009001900290002C11D0486885420ED2002A0CD0002E0AD0642E08D808460C307E
:404BC00001681C2068430C18207A002801D03846FEBD0120226020721846FFF7DDFE6060401C13D06681A6810A4827610C3067610179A94200D205710021684601810A46D8
:404C00002846029B00F040F82846FEBD00202072DDE70000080D002038B50124009400F039F838BDFEB50027164EFF433D4600240EE01C20316860430818017A002906D08A
:404C40004068FFF721FF002801D0254603E0641C3079A042EDDA681C12D01C2130684D434419FDF77FF869466068FFF741FF0546FDF770F8002DD9D1216868468847D5E7DD
:404C8000FEBD0000140D002038B50024009400F001F838BD1FB500220C49541E0A60002811DB496888420ED808491C220C31096850430818406801A9FFF7A0FE401C02D0D5
:404CC000002004B010BD2046FBE70000080D0020F0B50021114A4D1E174611710C3F0B46BD6016E008461C2460431668041D355114680646235014680836A3551468361D6A
:404D0000A353044616680A34335318301468491C255078688142E5D30020F0BD140D002038B500210091002811DB0F49097888420DDA0D4D04010C3529680859002807D01C
:404D4000201D0818694600F06FF9002801D0002038BDFDF707F828680F34015D491E0155FCF7F8FF009838BD240D0020F7B582B0002502986E1E06602E48D21C0240174686
:404D80002D4A2C4610460C380178106805E02301C358002B0FD0641CE4B28C42F7D3711C28D03401211D40180191039900F02AF900281FD101E02646F1E71F48016820469F
:404DC0000C300F521C480399026820460E30115419480399026820460F3011540398784300F0A0F8144900280968085102D00024009011E001251AE00F48016801980818F5
:404E0000009900F02CF9002801D0012502E00098C0190090641CE4B203988442ECD3002D05D10298066004480179491C0171284605B0F0BDFCFF0000300D0020F8B50D46C4
:404E400000216A468C461180002839DB23490978884235DA214B04010C3319680A59002A2ED020460C300B5A801C0E5C184670438018954224D3854222D2002006E00746AE
:404E80005F43BF18AF4206D0401CC0B2B042F6D36046002814D0114E271DC8190C366A46294600F006F900280AD168460088012808D030682946C01900F0D1F8002803D0D5
:404EC0000120F8BD0020F8BDFCF74CFF30680F34015D491C0155FCF73DFFF3E7240D0020F8B50F46002400F031F8002817D10C4900220B460C334A600EE021011D680E4692
:404F00006A501D680C36AA53B61C1D680F31AA551D68641C6A54E4B2BC42EED31A71F8BD240D002000280BD0C01C074A81085068890053884118994203D8936851601818F4
:404F40007047002070470000240D0020F8B5064600200F4D009029700C0121466846FEF747FC00280CD129460C3100980860301B001F84B221466846FEF73AFC002801D0D0
:404F8000FF20F8BD6C800098A8600020F8BD0000240D0020F8B5002827DB19490978884223DA174C05010C342168485900281CD028460C30085A009028460E300E5C401CF5
:404FC0000E5420682F1DC01900F064F800280CD12068002445590EE0094829460C300068C01900F03CF8002801D00120F8BD00982D18641CE4B2B442EED30020F8BD00006A
:40500000240D002030B50D4604000BD0A800FFF789FF6060002805D000202570C0436080002030BD012030BD70B50D46040005D0002D03D00220205E002801DA012070BD30
:40504000FCF790FE0221615E60688900405828606088401E6080FCF77DFE002070BD70B50D46040007D0002D05D002212078615E401E814201DB012070BDFCF773FE608815
:40508000401C00B26080616880000D50FCF762FE002070BD10B5040009D0227800216068FDF73CF90020C0436080002010BD012010BDF0B500231D46002802D00224045FE2
:4050C0000AE00120F0BD46689F00F6598E4201D1012503E05B1CDBB29C42F4DA15700020F0BD00000148007870470000380D00207CB505460024FEF70FF9A87969460870ED
:4051000000A8062229460130FDF7FFF80021684604F0FEFD0C2806D0072806D01F2806D0122806D006E0022404E0042402E0272400E0012420467CBD01480121417270475C
:405140000416002010B500F05FF9FFF7FBF9FFF7FFF910BD70B504460025FEF7DDF8002C06D0A079012803D8214602F05BFD00E00125284670BD01460120002902D05020A1
:40518000088000207047000001460120002905D0034854220078504308800020704700003A0D002010B502460D49FE204870032410460DF04FFC002810D10DF0F3FB00287E
:4051C0000CD105F081FB002808D100F0F9FA002804D105F043F8002800D10024204610BD380D002070B50025044600280ED0A07901280BD8FEF790F8A0790028204602D0E6
:4052000003F0A2F803E003F077F800E00125284670BD0000014610B50120002904D006220248FDF772F8002010BD0000440D002001460120002903D00878024908700020DC
:40524000704700003A0D00200148007A704700000416002038B504460120002C20D0617801291DD800290BD0FF25E535FEF754F80C4828180088C0B22070072803D00EE05F
:40528000FF25CD35F2E70020694608706846FFF773F969460878012801D108202070002038BD000000102E40014A002192681047380D002008B500226B461A7026280CD0BD
:4052C000094A342852680BD0352805D1900703D50021352005F0D4FB08BD19462620F9E7D007F9D03420F5E7380D0020014908727047000004160020F8B504460120002C16
:4053000026D06178012902D92278092A20D8002905D0FF25E5352078092803D004E0FF25CD35F8E708202070FDF7F6FF2078114F114E08280DD00020FFF75AF97078012894
:40534000207810D00D4969180880FE2070700020F8BD0120FFF74CF90720B8810549203188800120F2E7B8810248217820308180EBE70000C0112E40380D002000102E40C5
:4053800070B50E46050001D0002400E00C4C002C11D0E28A500609D5D107C90F022003F067F8E08A40218843E08204E0D107C90F012003F05DF83146284602F041FD70BD3A
:4053C00064150020F8B50546002004460D4E009013E022466946284601F026F80098002801D00DF019FBA878214602F083FBA878214602F071FB641CE4B2308AA042E8D850
:40540000F8BD00003016002038B51E4CFFF79AF8042813D0052811D0062812D003282AD007280AD100206946087002460120FEF7ABFFFFF787F80128FBD138BD00F09CFBE1
:4054400038BD02F0ADFB00F097FB02F00DFC8007800F0228F4D10C4841880029F0D05B21095D0029ECD101210170A07D0140022002F0FEFF38BD02F097FB0120FFF792F831
:4054800038BD0000641500205E0D0020F8B50646002403F05BF80546304603F071F803460A480021068A0DE001228A401046174628401F40002803D0002F01D1224394B20C
:4054C000491CC9B28E42EFD82046F8BD301600201CB50020694648706846FFF7BBFE01AA69460A20FEF750FF6946042008561CBD70B50D4601F07EFB04000BD020790028AB
:4055000008D0FDF709FFE178A0782A4602F01EFD002070BD022070BD0148007970470000381500204030C07E002800D00120704700B500F001F800BD902148430749084A70
:4055400040186030417F491CC9B24177D289914201D300214177C8B270470000441500203016002013B501F045FB04000BD001F0FCFE002807D0214601AA0A310620FEF7D6
:4055800003FF00201CBD02201CBD000010B50C4601F030FB00280AD001F0E7FE002806D0224604490A20FEF7EFFE002010BD022010BD000025150020F3B581B00746014688
:4055C0000026029802F0BAFF0446002F01D0002500E0154D002D21D0284601F041FB032C04D13946029803F005F806463846029902F072FA032C06D0002C10D00121384655
:4056000001F034FC03E03146384603F003FA284602F056F90221284602F06CF9FEBD3846029902F059FAFEBD6415002010B5044600F04CFA002804D103F0CEFE002801D083
:405640000C2010BD2078611C02F086FDFF2801D01F2010BD02F0CCFDFF280AD02178621C02F0C8F9044821780068026B601C904710BD072010BD0000840D002010B503F0E6
:40568000ABFE002801D00C2010BD02F047FD03480068C06A8047002010BD0000840D002070B50D46044610210DF0F6F81021601806460DF0F1F8334610221946204603F0BB
:4056C000B9FE102130460DF0E7F802202870204604F0FAFC70BD0000FEB504464078217802028006870FE0781143A5780E050002360D0543304601F07DFAEAB23B46214600
:405700000096019000F0FAF90006000E14D10B48224600680199436928469847C0B2FF280AD10198EAB24030817EFF23491C81762146019800F0E1F8FEBD0000A00D0020C9
:405740000020704710B5044603F046FE002801D00C2010BD2078611C02F0FEFCFF2808D002F032FC044821780068426B601C904710BD1F2010BD0000840D002010B500F06E
:405780006BF904F06BFD002010BD10B5044600786178E2780843A17811430843217908436179084305D003F009FE002803D00C2010BD122010BD204602F0C6FD002010BDAB
:4057C00010B5FCF7F3FA02F0E3FE044803F070FE02F004FC012000F003F810BD0C150020F1B586B003A8009005A8019028489F22017B114001736846FDF7A8FD002845D12C
:4058000069460989C90705D0224806990068C2686846904769460989890706D5002835D11D480068816A0698884700282ED11B4E0025757075737571F57535767576757511
:40584000B570F570B5713746F5730120D03738731F20F880FF2130467972A0300176457600F008FB00242046069901F029FD002803D1641C2406240EF5D0FD720749BD72C8
:40588000B573C0310D704D704D600D7207B0F0BDF8140020A00D0020840D00204415002070B505460E46084602F050FE0446304602F066FE0121A9400A46224001400A432F
:4058C00001D0012070BD002070BD10B50446084602F056FE0121A140014201D0012010BD002010BD10B5FEF72DFE032804D102F05BF90120FEF756FE10BDFEB51C461646D4
:405900000F46054601F0DCFFA878FFF711FE02460190334639460094284600F00DF8002808D1A8780199FFF72BFDFF2C02D138460DF072F8FEBD0000FFB585B005460E98BD
:405940000C46FF2810D02B49C00009680A5840180179C0795278814201D9012601E09006860F6846038108E06078A1788006860FE0780002014368460181284601F026FDAC
:40598000070007D021462846079A00F0E1FC384609B0F0BD304600F08FFD04AE0346039002AA29460096204600F0F9FB3C20405D002818D0284601F009FD012813D068463F
:4059C00000890096C0B20190A878231DFF22079902F0EAF968460089039BC2B2A878079902F02EFDD3E7684600890021C0B20091E9E700009C0D0020F8B50026002530464D
:405A0000FFF744FD07001DD090201149704340186030447F12E0601CFCF74CFBCCB23846E040C007C00F07D02146304602F04CF821463046FFF7C0FD6D1CEDB20548018AFF
:405A4000A942E8D8761C3606360ED7D0F8BD0000441500203016002010B502F0BFFA0020FFF7BEFE0DF06EF8002010BDF8B5002400F0F0F80123012800D10124104F002031
:405A80003E4620360425082203E0002801D0002100E031460979002907D001290BD002290BD0114681402143CCB2401C0006000EEBD07C70F8BD1C43F7E72C43F5E700008A
:405AC0004415002010B5FFF7D1FF10BD10B5044604F016FD002802D1601C00F001F810BD1CB500240094062269460194FCF7FEFB002800D1122420461CBD0000F8B504464C
:405B000000201E4617460D46002C12D0002D10D0022E0ED0032E0CD0002F0AD02179092907D0002905D013494A7F5A21095D8A4207D82089002104F0FCF928460CF06CFF18
:405B4000FF20E18F012905D1002F03D0012E06D0002E04D0374301D10121E187F8BD0021E187069A2A70069A120A6A70AF70E970F8BD0000F814002010B5FBF7DEFF044672
:405B8000FEF7E0FC012809D0FEF7DCFC022805D0FCF7E8F92046FBF7D4FFEEE72046FBF7D0FF10BD10B50B4681791943817103D08078114602F012FC10BD10B582798A43A4
:405BC000827102D1807802F01DFC10BD30B50C4C0220A28A0B4B9978002901D0022906D11D785B78EB18282B01D9032002E0032900D101205105490DC0020143A18230BDA4
:405C0000C0112E40540D002000B500F029F8002807D0012805D0032801D0042801D0002000BD012000BD014600B50020C90701D000F010F800BD014600B50020C90701D0FE
:405C400000F008F800BD000001480068704700004C0D002001480088000A704720102E400448008B410501D5042070474007800F7047000000102E400148406870470000E5
:405C80004C0D00207CB50446002568460570200610D5FFF7E5FF01280CD101A801F08AFF6846007900F058FB012001F071FE0220FFF708FF600712D50C48017901290ED16B
:405CC0000571684601F076FF6846007800F078FB0220FFF7F7FE00212620FFF7EBFA044800680169204688477CBD0000580D0020840D002010B501460A4A00780024107004
:405D0000FFF7A8FF0128084603D002F089FA204610BD00F0E7F80400F9D1034801210170F5E70000540D00200416002070B50446FFF790FF002801D00C2070BDA27B01213D
:405D40001F48002A827801D00A4301E05208520082706279012A14D0C17849084900C170184D2868016820468847207901280CD06188208803F0DEF82080207904280FD03E
:405D800015E0C2780A43C270EAE72868C168E01D8847E01D02F0C4FA0B48008D208006E02868C168E01D8847E01D02F0B9FA074920798870204602F041FA002070BD0000E4
:405DC00044150020840D0020F8140020540D002008B50178FFF73EFF814201D10C2008BD002914D0072069460870FFF70DFF012807D10121684600F0E5F8012801D00920BF
:405E000008BDFFF7E3FE02F04DFA012011E0FFF7FBFE012806D1684601F0CCFE6846007800F0CEFA02F034FAFFF714FF0028FBD10220FFF747FE002008BD000010B50146DA
:405E40000A4A007800245070FFF704FF0128084603D002F0A3FA204610BD00F065F80400F9D1034801214170F5E70000540D00200416002038B568460CF064FD002801D0AC
:405E80001F2038BD01210098C90201804180002505714571857107214173857302F0CEF9009C202200212046FCF738FA25702A460021601CFCF732FA204602F0B1F9204660
:405EC00002F06CFA00980CF0A7FD062200210448FCF724FA02480C388560002038BD0000580D0020F8B5044600250D4800950078012806D068460CF025FD002803D00725EF
:405F00000CE00C250AE0074E009830602278611C401CFCF7FAF93168207808702846F8BD041600204C0D0020F8B5044600250D4800954078012806D068460CF003FD002876
:405F400003D007250CE00C250AE0074E009870602278611C401CFCF7D8F97168207808702846F8BD041600204C0D00200346084800B5834209D8184600F03CFE002804D0F0
:405F80000089984201D1012000BD002000BD0000FF0E0000074A9179491C8906890E917138220A4092014907090E1143084302490840704744150020FF0E0000C006C00E5B
:405FC00070470000F8B507460E4600240D4803E0002C01D0002500E005462979002905D0641C2406240EF3D00020F8BD0021204601F066F92E712046FFF7CCFF28813C70ED
:406000000120F8BD6415002010B503F047FA0222002100F003F801F08DFF10BD10B5094B40074907000F090F185A595A40185043C0086421FCF73EF8002800D1012080B2D5
:4060400010BD000098540100F7B53D20405C88B015460C46002802D02878042802D200200BB0F0BD6946087200262046FFF75AFA012800D00126204603A9383001910090FF
:4060800023460327A17E34333246206A03F02AFA02A8089900900B46019120463A4603A9243003F0A7F902466846007A2870204601F0F2F81046D3E7FFB587B00C46054696
:4060C0001078694608723D20005D1746002826D000262046FFF726FA012800D00126204603A93830019100902346A17E34333246206A03F0F7F902A80090291D0191204610
:406100002B1D03A924300A9A03F074F902006846007A388002D1204601F0BEF810460BB0F0BDF0B505463C20405C89B016460C4600280CD0307869460873002806D00027C9
:406140002046FFF7EFF9012803D003E01F2009B0F0BD012703200890204604A93830019100902346E17E34333A46E06903F0BAF96846007B03A928180290009120462B462A
:40618000019504A92430089A03F068F902466846007B3070204601F089F81046D7E7FFB505463C20405C89B016460C46002810D0084601F00BF901280BD0308869468883B6
:4061C000002809D000272046FFF7ACF9012805D005E000200DB0F0BD0220FBE70127204603A93830019100902346E17E34333A46E06903F077F9291D2B1D07A8129A6D464A
:4062000007C5204603A924300C9A03F027F902466846808B3080204601F048F81046D9E770B50C460646FFF77DF9012824D06079227900020243E079A37900020343607A77
:40624000921F0102207A0843E17A0D02A17A154C294335464035A24207D20A38221F904203D2FF20F43083420DD91E202873304600F0C8FB1E2070BD00222421304602F032
:406280009FFD242070BDB07801F050FD012801D0002070BD28202873304600F0B3FB282070BD00007B0C0000002801D0002000E003484030C07F012800D00020704700006E
:4062C000641500200146002049070ED50021084B03E0002901D0002200E01A461279022A04D0491C0906090EF3D0704701207047641500200146002049070ED50021084BA9
:4063000003E0002901D0002200E01A461279022A04D0491C0906090EF3D07047012070476415002010B5044680346068002803D00CF086FB0020606010BD40304170704795
:406340004030817070474030017070470171704792001018C166704770B53C2501F030FA040004D020460021433001F093FCFF222946204600F0E8FB002C02D0A07801F0E9
:40638000A1F970BD10B5002801D0002000E00348002802D0008903F013FE10BD6415002010B5002801D0002000E00448002804D00179072901D100F047F810BD6415002009
:4063C00010B501F0FDF9002802D0807801F07AF910BD00207047000070B50546008A00281ED01049F122097B1140C90618D5294640314A8A098A521C4A4392B2D10800D1BA
:406400000121540801E0621A94B2A042FBD9FEF769FE012804D1298AA878224601F04CFD70BD0000F814002010B50023054C0B60248A944204D992001018C26E0A60C366DB
:4064400010BD00003016002038B5044600200090A079002814D14020015D052901D00E290ED168460CF07EFA002809D12046009902F084FC03481021428B2046FFF792FB42
:4064800038BD0000F814002010B50B4604460146184602F0E3F8002802D020460CF0C6FA10BD13B5044601AA11460620FDF76CFF6846818861811CBD002800D10220704723
:4064C00070470000F8B504462346401D543300909A1EA078911E01F089FB25464035A88A298A8000FBF7E6FD401E81B2688A884203D96982A07801F0F5FF698A8C20015101
:4065000020460021433001F0C5FB27480088E88102F0C4FFE989891C8AB26179FFF77EFD01F008FD02F0BAFF2A8A6179FFF776FD074601F0F3FC688A002806D01B49088A52
:40654000032212021043088202E0002001F0BEFF1648803801886E8A002E0CD0304648431349FBF791FE0004000C01D0401C80B21049488002E00F4800214180288A7043C6
:4065800081B2A07801F018FFFF2228374932B9B21346204602F0D2FCE98AA07801F08CFEA07801F0B9FAF8BD80102E40E0112E40710200005E0D00207FB5044680346168D6
:4065C00005460E46183108226846FBF79EFE31462031082202A8FBF798FE102168460CF05BF96068102108300CF056F960682B46083024331022694602F01CFF7FBD10B5C7
:4066000004460821FFF7D9FA10212046FFF7D5FA207905281FD006281DD008281AD12189002003F045FC072020712046FEF77AFF014620464030012913D00E210170002162
:406640000176204601F050F82046FFF76BFE2046FFF7C2FE10BD20890122002103F00CFCE1E70521EAE70000FFB581B01F4604460821FFF7A2FA10212046FFF79EFA2079A2
:40668000082803D0092804D0042203E00422012501E009220025204600F05EFE264600204036307022712046FFF73CFE0398002D02D0012808D00BE001280AD1208900227A
:4066C000029903F0D9FB04E02189029803F0F0FB012700203076012F04D0204601F004F805B0F0BD02983073204602F095FB054605480121428B2046FFF754FA002DEFD148
:4067000009202071ECE70000F814002070B50C460546FEF707FF012809D108212846FFF74CFA0023012221462846FFF79DFF70BD10B5044600F010FE2046FFF7F3FD0021B9
:406740004034217010BD70B505461A24FEF7EAFE012809D108212846FFF72FFA0023012221462846FFF780FF70BD0000F8B50446002000900E4668460CF0F4F8002801D0BC
:406780000D20F8BD8420005908212030009D00F02CFA20460421383000F027FA002E02D1204600F03BFE2946204602F072FA0E480821428B2046FFF7F5F9204601F005F81D
:4067C00025464035002808D0204600F023F8002801D0092028700020F8BD08202870204601F06EF8F7E70000F8140020014610B540310A460978082906D0092907D00A29A1
:4068000001D100F091F810BD0B20107010BD00F001F810BD70B50446007925464035052805D0062803D008280FD00C2070BD03220621204602F0C4FA0D480821428B2046CC
:40684000FFF7B0F91120287010E006202873204602F0E2FA0646AA8A0A20424301212046FFF7A0F9002E01D109202071002070BDF814002038B504460020009068460CF0C1
:4068800071F8002801D00D2038BD2046009D00F0C3F908202071204600F0C0FD2946204602F02EFA00213D2001550F2040210855204601F005F8002038BD00B5024600F0D3
:4068C0004BFD10214032117000BD10B50446FEF729FE012809D04020005D112805D100231A4606212046FFF7BFFE10BD10B5FFF786FE10BD38B504460021684600910CF047
:4069000031F800280CD12046009902F07AFA05480821428B2046FFF745F90D204034207038BD0000F814002038B504460021684600910CF017F8002801D00D2038BD204672
:40694000009902F053FA05480821428B2046FFF729F90C2040342070002038BDF814002000787047F8B5002569460D70002801D0002400E01F4C002C18D0204600F0F5FC1D
:40698000002813D0207903280BD005280CD026464036B18AA07801F019FDB078012806D01DE0042020711DE006202071F8BD0021204601F070FE274680373868002802D002
:4069C0000CF03EF83D600020B0702079072802D12046FFF701FD0221204600F08BFF20790428E3D1207A694608703420FEF762FCF8BD00006415002010B54C22115400F0D9
:406A000052F810BD10B50446FF21FFF7D6F809202071A07801F000FD10BD000038B5FF216A461180002801D0002400E00B4C002C12D011460620FDF7A7FC6846018820465E
:406A4000FFF72FFD204600F0C7FC002804D104480068C1692046884738BD000064150020A00D002010B504468079002809D022214C200155FF212046FFF79FF8204600F0F9
:406A800012F810BD10B5037902464032002B03D01173092B02D003E0002100E02221117300F001F810BDFEB504460089002700902781207926464036002817D0012815D09E
:406AC00002280AD112E002AA01A9204601F0B4FD002807D101980BF0A9FF204601F0D4FD0028F0D02046FEF76DFCB776254680352868002802D00BF0A3FF2F606868002836
:406B000002D00BF09DFF6F60317B002919D0009800F064F8A078002101F01AF82046FFF773FAA07801F0ECF8A07800F0CBFDFF212046FFF742F80B20FEF7C4FF00F0A8FC8C
:406B4000FEBD1F213173E2E7F8B517460E46054602F0A0FC04003CD020460C3001F08AF82046062200211830FBF7D8FB2046062200211230FBF7D2FB164822460068394638
:406B8000436A28469847074626702846FEF7CAFC012148406070002D10D02889608028464030C1782171002E0FD169796171018AE180418A2181808A608106E00648008B49
:406BC000C005C00F2071002060803946204603F0F2F8F8BD840D002000102E400A4610B50146002003F004FA10BD10B50BF030FC10BD000000B50146FFF7E0F9002801D013
:406C0000002000E00348002802D002898A4200D0002000BD6415002038B5044680346068002806D168460BF0ADFE002801D100986060606838BD000010B5014600F0C6FBA0
:406C40000128887802D0FEF777FC10BD90214843024940186030007F10BD00004415002070B5054604464035A87F012811D1A1789020084A484380186030067F3046FEF791
:406C80000FFE002805D10220A877A078314601F0E1F870BD4415002010B50C4CA07A002813D0FEF7A9FE0A48027F417F408B00F0F7FB012809D10020A07200F091FF054968
:406CC0008989090B01D000F03BFA10BD1416002044150020A0102E4070477047490510B5490F0B00FCF7E6FC060704080C0C0F073E21FFF781FE10BD0821FFF7C3FE10BD7C
:406D0000FFF7D1FE10BDFFF7ADFE10BDF8B507460025002D01D0002600E0204E00F02EFF3046403044890021418100F031FF304600F01BFB01282BD1A00702D52846FFF76C
:406D400011FEE00602D52846FFF768FEA00601D5FEF752FE600601D500F054FB200602D5284600F01DF8600702D5284600F046FA380402D52846FFF713FB780402D52846AF
:406D8000FFF700FBE00703D021463046FFF7A6FF6D1C2D062D0EBCD0F8BD000064150020F8B5002801D0002400E0284C002C4BD025464035A878012846D1FF2788204937EC
:406DC00000593E46002805D02149097B890601D5878AC68A2046FEF7A5FB012834D002F05DFB2A8A6179FFF719F9009001F096F800983346283081B23A46204602F09EF8E4
:406E0000E98AA07801F058FA12480188688A124E002810D048431149FBF736FA0004000C01D0401C80B27080A07DC107C90F002001F01EFB01E000207080288A698A4843D9
:406E400081B2A07801F0B8FAF8BD000064150020F814002060112E405E0D0020710200000149096809680847A00D002070B50D460026194A0146002801D0002401E01446E5
:406E80002034002C26D0204600F0A0FA01280AD19020484380186030007FFEF701FD002801D101F039FF0D48006881692046884700280CD020464030817EA94202D3491B97
:406EC000817600E086762089294603F032F8204600F0F6FC70BD000044150020A00D002070B503460088FFF785FE040013D000F03CFA00280FD02079092819D0254699781D
:406F000040352973204601F087FF0646A878012803D0AA8A02E0022070BDEA880A20424301212046FEF73EFE002E01D109202071002070BD0EB5002217216B4602921981B9
:406F400000905A810120029B00990BF019FE0EBDF8B518480024807A002822D1164E0025B089000B22E0204600F0A4FE1249A039401807882A462146384600F091FA012851
:406F800010D00E480122478305770A4944778A72002D01D0002000E02030002801D000F08FFCF8BDB089000B641CE4B20028DAD1F8BD000014160020A0102E4044150020EE
:406FC00010B50088FFF716FE002809D0014640310C460978082905D00B2903D00C2010BD022010BDFFF716FC002801D009202070002010BD70B503460088FFF7FBFD04002A
:4070000008D0254640352878082805D00B2803D00C2070BD022070BD8420005910220830991CFBF772F92046FFF7C6FA2878082804D02046FFF778FC002801D00A20287081
:40704000204600F03DFC002070BD000010B50C46002121700088FFF7CDFD03000BD000F084F9002807D00948F121007B0840C00603D4112010BD022010BD022020701A8AD3
:407080001889002102F0D0FF002010BDF8140020F8B50F46002100910088FFF7ABFD040012D000F062F900280ED0E079410641D4617E02264A07002A08DB890740250029EB
:4070C0001ADA2843E07135E00220F8BD02F0E2F90021017021894180A1898180217E4170E189C1803E7005460178134802F06AFC284602F03DFF1DE0204600F06DF9012861
:4071000006D068460BF02EFC002803D00720F8BD2A20F8BDE07900992843E071204601F0A5FE607E0421304360760448428B2046FEF738FD0020F8BD1D040000F814002011
:407140003EB500220F236C460292238100910190628169460EC900200BF012FD3EBD0000F8B50F46054600F02BFB04002AD000F007F900282AD00320207125460026403501
:40718000EE76E6702046FFF79DF901F081F80920FEF798FCA07800F0A1FD0121204600F0A9FB2E706E70AE703A4600212046FFF7CBFC0F49887B401C8873A078FFF750FED9
:4071C000022012E0284601F027F9F8BD002001F023F90848008B4007800F012802D1064801F09EF801F05EF80120FEF76BFCF8BD4415002000102E408C0D002010B5002882
:4072000001D0002000E0094800280DD0014640310A464978022901D100215170807DC107C90F002001F024F910BD00006415002070B503460D460088FFF7DCFC04000BD058
